{
  "contractName": "EnablePayGas",
  "abi": [
    {
      "inputs": [],
      "stateMutability": "nonpayable",
      "type": "constructor"
    },
    {
      "anonymous": false,
      "inputs": [
        {
          "indexed": true,
          "internalType": "address",
          "name": "contractAddress",
          "type": "address"
        },
        {
          "indexed": true,
          "internalType": "address",
          "name": "payer",
          "type": "address"
        }
      ],
      "name": "EnablePayGas",
      "type": "event"
    },
    {
      "inputs": [
        {
          "internalType": "address",
          "name": "_contract",
          "type": "address"
        }
      ],
      "name": "enable",
      "outputs": [],
      "stateMutability": "nonpayable",
      "type": "function"
    }
  ],
  "bytecode": "0x608060405234801561001057600080fd5b506101c6806100206000396000f3fe608060405234801561001057600080fd5b506004361061002b5760003560e01c80635bfa1b6814610030575b600080fd5b61004a60048036038101906100459190610163565b61004c565b005b60016000808373ffffffffffffffffffffffffffffffffffffffff1673ffffffffffffffffffffffffffffffffffffffff16815260200190815260200160002060006101000a81548160ff0219169083151502179055503373ffffffffffffffffffffffffffffffffffffffff168173ffffffffffffffffffffffffffffffffffffffff167f8734c18fc9dab8f22e6be34a6083ff999c2950d87ca6fb1210d7bf41ea72ecb360405160405180910390a350565b600080fd5b600073ffffffffffffffffffffffffffffffffffffffff82169050919050565b600061013082610105565b9050919050565b61014081610125565b811461014b57600080fd5b50565b60008135905061015d81610137565b92915050565b60006020828403121561017957610178610100565b5b60006101878482850161014e565b9150509291505056fea26469706673582212203c3a1733ee9d6a5aaac579441925f581f4c09470e5ab426031cd15feae57815b64736f6c634300080b0033",
  "immutableReferences": {},
  "source": "pragma solidity ^0.8.11;\n\n/**\n * @title EnablePayGas\n * @author Bui Duc Huy<duchuy.124dk@gmail.com>\n * @dev Implementation of the contract enable pay gas.\n */\ncontract EnablePayGas {\n  event EnablePayGas(address indexed contractAddress, address indexed payer);\n\n  mapping(address => bool) enableContracts;\n  uint256 _minimumBalance;\n\n  constructor() public {\n  }\n\n  function enable(address _contract) public {\n    enableContracts[_contract] = true;\n\n    emit EnablePayGas(_contract, msg.sender);\n  }\n}\n",
  "sourcePath": "/Users/huyduc/Documents/fun/go-ethereum-pos/contracts/enablePayGas/contracts/enablePayGas.sol",
  "compiler": {
    "name": "solc",
    "version": "0.8.11+commit.d7f03943.Emscripten.clang"
  },
  "schemaVersion": "3.4.4",
  "updatedAt": "2022-02-21T04:52:45.595Z",
  "devdoc": {
    "author": "Bui Duc Huy<duchuy.124dk@gmail.com>",
    "details": "Implementation of the contract enable pay gas.",
    "kind": "dev",
    "methods": {},
    "title": "EnablePayGas",
    "version": 1
  },
  "userdoc": {
    "kind": "user",
    "methods": {},
    "version": 1
  }
}